{"abi":[{"type":"constructor","inputs":[{"name":"_nouns","type":"address","internalType":"contract INounsToken"},{"name":"_weth","type":"address","internalType":"address"},{"name":"_duration","type":"uint256","internalType":"uint256"},{"name":"_minPrice","type":"uint256","internalType":"uint256"},{"name":"_maxPrice","type":"uint256","internalType":"uint256"}],"stateMutability":"nonpayable"},{"type":"function","name":"MAX_PRICE","inputs":[],"outputs":[{"name":"","type":"uint256","internalType":"uint256"}],"stateMutability":"view"},{"type":"function","name":"MAX_TIME_BUFFER","inputs":[],"outputs":[{"name":"","type":"uint56","internalType":"uint56"}],"stateMutability":"view"},{"type":"function","name":"MIN_PRICE","inputs":[],"outputs":[{"name":"","type":"uint256","internalType":"uint256"}],"stateMutability":"view"},{"type":"function","name":"PRICE_LADDER_BUCKETS","inputs":[],"outputs":[{"name":"","type":"uint256","internalType":"uint256"}],"stateMutability":"view"},{"type":"function","name":"auction","inputs":[],"outputs":[{"name":"","type":"tuple","internalType":"struct INounsAuctionHouseV3.AuctionV2View","components":[{"name":"nounId","type":"uint96","internalType":"uint96"},{"name":"amount","type":"uint128","internalType":"uint128"},{"name":"startTime","type":"uint40","internalType":"uint40"},{"name":"endTime","type":"uint40","internalType":"uint40"},{"name":"bidder","type":"address","internalType":"address payable"},{"name":"settled","type":"bool","internalType":"bool"}]}],"stateMutability":"view"},{"type":"function","name":"auctionStorage","inputs":[],"outputs":[{"name":"nounId","type":"uint96","internalType":"uint96"},{"name":"clientId","type":"uint32","internalType":"uint32"},{"name":"amount","type":"uint128","internalType":"uint128"},{"name":"startTime","type":"uint40","internalType":"uint40"},{"name":"endTime","type":"uint40","internalType":"uint40"},{"name":"bidder","type":"address","internalType":"address payable"},{"name":"settled","type":"bool","internalType":"bool"}],"stateMutability":"view"},{"type":"function","name":"bidderMerkleRoot","inputs":[],"outputs":[{"name":"","type":"bytes32","internalType":"bytes32"}],"stateMutability":"view"},{"type":"function","name":"biddingClient","inputs":[{"name":"nounId","type":"uint256","internalType":"uint256"}],"outputs":[{"name":"","type":"uint32","internalType":"uint32"}],"stateMutability":"view"},{"type":"function","name":"createBid","inputs":[{"name":"","type":"uint256","internalType":"uint256"}],"outputs":[],"stateMutability":"payable"},{"type":"function","name":"createBid","inputs":[{"name":"","type":"uint256","internalType":"uint256"},{"name":"","type":"uint32","internalType":"uint32"}],"outputs":[],"stateMutability":"payable"},{"type":"function","name":"currentPhase","inputs":[],"outputs":[{"name":"","type":"uint8","internalType":"enum INounsAuctionHouseV4.Phase"}],"stateMutability":"view"},{"type":"function","name":"duration","inputs":[],"outputs":[{"name":"","type":"uint256","internalType":"uint256"}],"stateMutability":"view"},{"type":"function","name":"e3ToAuction","inputs":[{"name":"e3Id","type":"bytes32","internalType":"bytes32"}],"outputs":[{"name":"nounId","type":"uint256","internalType":"uint256"}],"stateMutability":"view"},{"type":"function","name":"enclave","inputs":[],"outputs":[{"name":"","type":"address","internalType":"contract IE3Enclave"}],"stateMutability":"view"},{"type":"function","name":"getPrices","inputs":[{"name":"auctionCount","type":"uint256","internalType":"uint256"}],"outputs":[{"name":"prices","type":"uint256[]","internalType":"uint256[]"}],"stateMutability":"view"},{"type":"function","name":"getSettlements","inputs":[{"name":"auctionCount","type":"uint256","internalType":"uint256"},{"name":"skipEmptyValues","type":"bool","internalType":"bool"}],"outputs":[{"name":"settlements","type":"tuple[]","internalType":"struct INounsAuctionHouseV3.Settlement[]","components":[{"name":"blockTimestamp","type":"uint32","internalType":"uint32"},{"name":"amount","type":"uint256","internalType":"uint256"},{"name":"winner","type":"address","internalType":"address"},{"name":"nounId","type":"uint256","internalType":"uint256"},{"name":"clientId","type":"uint32","internalType":"uint32"}]}],"stateMutability":"view"},{"type":"function","name":"getSettlements","inputs":[{"name":"startId","type":"uint256","internalType":"uint256"},{"name":"endId","type":"uint256","internalType":"uint256"},{"name":"skipEmptyValues","type":"bool","internalType":"bool"}],"outputs":[{"name":"settlements","type":"tuple[]","internalType":"struct INounsAuctionHouseV3.Settlement[]","components":[{"name":"blockTimestamp","type":"uint32","internalType":"uint32"},{"name":"amount","type":"uint256","internalType":"uint256"},{"name":"winner","type":"address","internalType":"address"},{"name":"nounId","type":"uint256","internalType":"uint256"},{"name":"clientId","type":"uint32","internalType":"uint32"}]}],"stateMutability":"view"},{"type":"function","name":"getSettlementsFromIdtoTimestamp","inputs":[{"name":"startId","type":"uint256","internalType":"uint256"},{"name":"endTimestamp","type":"uint256","internalType":"uint256"},{"name":"skipEmptyValues","type":"bool","internalType":"bool"}],"outputs":[{"name":"settlements","type":"tuple[]","internalType":"struct INounsAuctionHouseV3.Settlement[]","components":[{"name":"blockTimestamp","type":"uint32","internalType":"uint32"},{"name":"amount","type":"uint256","internalType":"uint256"},{"name":"winner","type":"address","internalType":"address"},{"name":"nounId","type":"uint256","internalType":"uint256"},{"name":"clientId","type":"uint32","internalType":"uint32"}]}],"stateMutability":"view"},{"type":"function","name":"getVickreyAuction","inputs":[{"name":"nounId","type":"uint256","internalType":"uint256"}],"outputs":[{"name":"","type":"tuple","internalType":"struct INounsAuctionHouseV4.VickreyAuctionView","components":[{"name":"nounId","type":"uint256","internalType":"uint256"},{"name":"e3Id","type":"bytes32","internalType":"bytes32"},{"name":"merkleRoot","type":"bytes32","internalType":"bytes32"},{"name":"phase","type":"uint8","internalType":"enum INounsAuctionHouseV4.Phase"},{"name":"bidCount","type":"uint256","internalType":"uint256"},{"name":"secondPriceBucket","type":"uint256","internalType":"uint256"},{"name":"secondPrice","type":"uint256","internalType":"uint256"},{"name":"winner","type":"address","internalType":"address"},{"name":"zeroBids","type":"bool","internalType":"bool"}]}],"stateMutability":"view"},{"type":"function","name":"hasSubmittedSealedBid","inputs":[{"name":"nounId","type":"uint256","internalType":"uint256"},{"name":"bidder","type":"address","internalType":"address"}],"outputs":[{"name":"","type":"bool","internalType":"bool"}],"stateMutability":"view"},{"type":"function","name":"initialize","inputs":[{"name":"_reservePrice","type":"uint192","internalType":"uint192"},{"name":"_timeBuffer","type":"uint56","internalType":"uint56"},{"name":"_minBidIncrementPercentage","type":"uint8","internalType":"uint8"},{"name":"_sanctionsOracle","type":"address","internalType":"contract IChainalysisSanctionsList"}],"outputs":[],"stateMutability":"nonpayable"},{"type":"function","name":"initializeV4","inputs":[{"name":"_enclave","type":"address","internalType":"address"},{"name":"_program","type":"address","internalType":"address"},{"name":"_bidderMerkleRoot","type":"bytes32","internalType":"bytes32"}],"outputs":[],"stateMutability":"nonpayable"},{"type":"function","name":"minBidIncrementPercentage","inputs":[],"outputs":[{"name":"","type":"uint8","internalType":"uint8"}],"stateMutability":"view"},{"type":"function","name":"nouns","inputs":[],"outputs":[{"name":"","type":"address","internalType":"contract INounsToken"}],"stateMutability":"view"},{"type":"function","name":"onAuctionResultDecoded","inputs":[{"name":"nounId","type":"uint256","internalType":"uint256"},{"name":"secondPriceBucket","type":"uint256","internalType":"uint256"},{"name":"winner","type":"address","internalType":"address"},{"name":"zeroBids","type":"bool","internalType":"bool"}],"outputs":[],"stateMutability":"nonpayable"},{"type":"function","name":"owner","inputs":[],"outputs":[{"name":"","type":"address","internalType":"address"}],"stateMutability":"view"},{"type":"function","name":"pause","inputs":[],"outputs":[],"stateMutability":"nonpayable"},{"type":"function","name":"paused","inputs":[],"outputs":[{"name":"","type":"bool","internalType":"bool"}],"stateMutability":"view"},{"type":"function","name":"program","inputs":[],"outputs":[{"name":"","type":"address","internalType":"contract IE3Program"}],"stateMutability":"view"},{"type":"function","name":"renounceOwnership","inputs":[],"outputs":[],"stateMutability":"nonpayable"},{"type":"function","name":"reservePrice","inputs":[],"outputs":[{"name":"","type":"uint192","internalType":"uint192"}],"stateMutability":"view"},{"type":"function","name":"sanctionsOracle","inputs":[],"outputs":[{"name":"","type":"address","internalType":"contract IChainalysisSanctionsList"}],"stateMutability":"view"},{"type":"function","name":"setMinBidIncrementPercentage","inputs":[{"name":"_minBidIncrementPercentage","type":"uint8","internalType":"uint8"}],"outputs":[],"stateMutability":"nonpayable"},{"type":"function","name":"setPrices","inputs":[{"name":"settlements","type":"tuple[]","internalType":"struct INounsAuctionHouseV3.SettlementNoClientId[]","components":[{"name":"blockTimestamp","type":"uint32","internalType":"uint32"},{"name":"amount","type":"uint256","internalType":"uint256"},{"name":"winner","type":"address","internalType":"address"},{"name":"nounId","type":"uint256","internalType":"uint256"}]}],"outputs":[],"stateMutability":"nonpayable"},{"type":"function","name":"setReservePrice","inputs":[{"name":"_reservePrice","type":"uint192","internalType":"uint192"}],"outputs":[],"stateMutability":"nonpayable"},{"type":"function","name":"setSanctionsOracle","inputs":[{"name":"newSanctionsOracle","type":"address","internalType":"address"}],"outputs":[],"stateMutability":"nonpayable"},{"type":"function","name":"setTimeBuffer","inputs":[{"name":"_timeBuffer","type":"uint56","internalType":"uint56"}],"outputs":[],"stateMutability":"nonpayable"},{"type":"function","name":"settleAuction","inputs":[],"outputs":[],"stateMutability":"nonpayable"},{"type":"function","name":"settleCurrentAndCreateNewAuction","inputs":[],"outputs":[],"stateMutability":"nonpayable"},{"type":"function","name":"submitSealedBid","inputs":[{"name":"nounId","type":"uint256","internalType":"uint256"},{"name":"encryptedBid","type":"bytes","internalType":"bytes"},{"name":"merkleProof","type":"bytes32[]","internalType":"bytes32[]"}],"outputs":[],"stateMutability":"payable"},{"type":"function","name":"timeBuffer","inputs":[],"outputs":[{"name":"","type":"uint56","internalType":"uint56"}],"stateMutability":"view"},{"type":"function","name":"transferOwnership","inputs":[{"name":"newOwner","type":"address","internalType":"address"}],"outputs":[],"stateMutability":"nonpayable"},{"type":"function","name":"unpause","inputs":[],"outputs":[],"stateMutability":"nonpayable"},{"type":"function","name":"v4Initialized","inputs":[],"outputs":[{"name":"","type":"bool","internalType":"bool"}],"stateMutability":"view"},{"type":"function","name":"warmUpSettlementState","inputs":[{"name":"startId","type":"uint256","internalType":"uint256"},{"name":"endId","type":"uint256","internalType":"uint256"}],"outputs":[],"stateMutability":"nonpayable"},{"type":"function","name":"weth","inputs":[],"outputs":[{"name":"","type":"address","internalType":"address"}],"stateMutability":"view"},{"type":"event","name":"AuctionBid","inputs":[{"name":"nounId","type":"uint256","indexed":true,"internalType":"uint256"},{"name":"sender","type":"address","indexed":false,"internalType":"address"},{"name":"value","type":"uint256","indexed":false,"internalType":"uint256"},{"name":"extended","type":"bool","indexed":false,"internalType":"bool"}],"anonymous":false},{"type":"event","name":"AuctionBidWithClientId","inputs":[{"name":"nounId","type":"uint256","indexed":true,"internalType":"uint256"},{"name":"value","type":"uint256","indexed":false,"internalType":"uint256"},{"name":"clientId","type":"uint32","indexed":true,"internalType":"uint32"}],"anonymous":false},{"type":"event","name":"AuctionCreated","inputs":[{"name":"nounId","type":"uint256","indexed":true,"internalType":"uint256"},{"name":"startTime","type":"uint256","indexed":false,"internalType":"uint256"},{"name":"endTime","type":"uint256","indexed":false,"internalType":"uint256"}],"anonymous":false},{"type":"event","name":"AuctionExtended","inputs":[{"name":"nounId","type":"uint256","indexed":true,"internalType":"uint256"},{"name":"endTime","type":"uint256","indexed":false,"internalType":"uint256"}],"anonymous":false},{"type":"event","name":"AuctionMinBidIncrementPercentageUpdated","inputs":[{"name":"minBidIncrementPercentage","type":"uint256","indexed":false,"internalType":"uint256"}],"anonymous":false},{"type":"event","name":"AuctionReservePriceUpdated","inputs":[{"name":"reservePrice","type":"uint256","indexed":false,"internalType":"uint256"}],"anonymous":false},{"type":"event","name":"AuctionResultDecoded","inputs":[{"name":"nounId","type":"uint256","indexed":true,"internalType":"uint256"},{"name":"secondPriceBucket","type":"uint256","indexed":false,"internalType":"uint256"},{"name":"winner","type":"address","indexed":false,"internalType":"address"},{"name":"zeroBids","type":"bool","indexed":false,"internalType":"bool"}],"anonymous":false},{"type":"event","name":"AuctionSettled","inputs":[{"name":"nounId","type":"uint256","indexed":true,"internalType":"uint256"},{"name":"winner","type":"address","indexed":false,"internalType":"address"},{"name":"amount","type":"uint256","indexed":false,"internalType":"uint256"}],"anonymous":false},{"type":"event","name":"AuctionSettledWithClientId","inputs":[{"name":"nounId","type":"uint256","indexed":true,"internalType":"uint256"},{"name":"clientId","type":"uint32","indexed":true,"internalType":"uint32"}],"anonymous":false},{"type":"event","name":"AuctionTimeBufferUpdated","inputs":[{"name":"timeBuffer","type":"uint256","indexed":false,"internalType":"uint256"}],"anonymous":false},{"type":"event","name":"OwnershipTransferred","inputs":[{"name":"previousOwner","type":"address","indexed":true,"internalType":"address"},{"name":"newOwner","type":"address","indexed":true,"internalType":"address"}],"anonymous":false},{"type":"event","name":"Paused","inputs":[{"name":"account","type":"address","indexed":false,"internalType":"address"}],"anonymous":false},{"type":"event","name":"SanctionsOracleSet","inputs":[{"name":"newSanctionsOracle","type":"address","indexed":false,"internalType":"address"}],"anonymous":false},{"type":"event","name":"SealedBidSubmitted","inputs":[{"name":"nounId","type":"uint256","indexed":true,"internalType":"uint256"},{"name":"bidder","type":"address","indexed":true,"internalType":"address"}],"anonymous":false},{"type":"event","name":"Unpaused","inputs":[{"name":"account","type":"address","indexed":false,"internalType":"address"}],"anonymous":false},{"type":"error","name":"ActiveLegacyAuction","inputs":[]},{"type":"error","name":"AlreadySubmitted","inputs":[{"name":"bidder","type":"address","internalType":"address"},{"name":"nounId","type":"uint256","internalType":"uint256"}]},{"type":"error","name":"AuctionAlreadySettled","inputs":[]},{"type":"error","name":"AuctionExpired","inputs":[]},{"type":"error","name":"AuctionNotUpForSealedBids","inputs":[]},{"type":"error","name":"AuctionResultPending","inputs":[]},{"type":"error","name":"AuctionStillRunning","inputs":[]},{"type":"error","name":"InvalidCollateral","inputs":[]},{"type":"error","name":"InvalidMerkleProof","inputs":[]},{"type":"error","name":"InvalidPhase","inputs":[{"name":"expected","type":"uint8","internalType":"enum INounsAuctionHouseV4.Phase"},{"name":"actual","type":"uint8","internalType":"enum INounsAuctionHouseV4.Phase"}]},{"type":"error","name":"InvalidSecondPriceBucket","inputs":[{"name":"bucket","type":"uint256","internalType":"uint256"}]},{"type":"error","name":"InvalidWinner","inputs":[{"name":"winner","type":"address","internalType":"address"}]},{"type":"error","name":"LegacyEnglishBidsDisabled","inputs":[]},{"type":"error","name":"OnlyProgram","inputs":[]},{"type":"error","name":"UnknownAuction","inputs":[{"name":"nounId","type":"uint256","internalType":"uint256"}]},{"type":"error","name":"V4AlreadyInitialized","inputs":[]},{"type":"error","name":"VickreyConfigurationImmutable","inputs":[]}],"bytecode":{"object":"0x61012060405234801562000011575f80fd5b5060405162007fd438038062007fd48339818101604052810190620000379190620002bf565b5f60019054906101000a900460ff16806200005c57505f8054906101000a900460ff16155b6200009e576040517f08c379a00000000000000000000000000000000000000000000000000000000081526004016200009590620003c7565b60405180910390fd5b5f8060019054906101000a900460ff161590508015620000ec5760015f60016101000a81548160ff02191690831515021790555060015f806101000a81548160ff0219169083151502179055505b8282101562000132576040517f08c379a0000000000000000000000000000000000000000000000000000000008152600401620001299062000435565b60405180910390fd5b8573ffffffffffffffffffffffffffffffffffffffff1660808173ffffffffffffffffffffffffffffffffffffffff16815250508473ffffffffffffffffffffffffffffffffffffffff1660a08173ffffffffffffffffffffffffffffffffffffffff16815250508360c081815250508260e081815250508161010081815250508015620001d4575f8060016101000a81548160ff0219169083151502179055505b50505050505062000455565b5f80fd5b5f73ffffffffffffffffffffffffffffffffffffffff82169050919050565b5f6200020f82620001e4565b9050919050565b5f620002228262000203565b9050919050565b620002348162000216565b81146200023f575f80fd5b50565b5f81519050620002528162000229565b92915050565b620002638162000203565b81146200026e575f80fd5b50565b5f81519050620002818162000258565b92915050565b5f819050919050565b6200029b8162000287565b8114620002a6575f80fd5b50565b5f81519050620002b98162000290565b92915050565b5f805f805f60a08688031215620002db57620002da620001e0565b5b5f620002ea8882890162000242565b9550506020620002fd8882890162000271565b94505060406200031088828901620002a9565b93505060606200032388828901620002a9565b92505060806200033688828901620002a9565b9150509295509295909350565b5f82825260208201905092915050565b7f496e697469616c697a61626c653a20636f6e747261637420697320616c7265615f8201527f647920696e697469616c697a6564000000000000000000000000000000000000602082015250565b5f620003af602e8362000343565b9150620003bc8262000353565b604082019050919050565b5f6020820190508181035f830152620003e081620003a1565b9050919050565b7f696e76616c69642070726963652072616e6765000000000000000000000000005f82015250565b5f6200041d60138362000343565b91506200042a82620003e7565b602082019050919050565b5f6020820190508181035f8301526200044e816200040f565b9050919050565b60805160a05160c05160e05161010051617ad8620004fc5f395f8181610a0201528181611efe01528181613f5901528181614f150152614f6d01525f81816131820152818161395501528181613c8e01528181613f0d01528181613f380152613f9901525f8181611854015261416c01525f8181611a52015281816154d6015261555301525f81816118900152818161409601528181614ccc0152614d5a0152617ad85ff3fe60806040526004361061027c575f3560e01c8063945c37cb1161014e578063b3df4df9116100c0578063dbb06c9311610079578063dbb06c931461091c578063e42aee0c14610946578063ec91f2a41461096e578063f25efffc14610998578063f2fde38b146109ae578063f859884b146109d65761027c565b8063b3df4df914610812578063bc88b0031461083c578063c0555d9814610864578063c860ebc61461088c578063d8642e1e146108b6578063db2e1eed146108f25761027c565b8063a94dd8a011610112578063a94dd8a014610702578063abbfb7861461072a578063ad9f20a614610746578063af64dd3014610770578063b1296a94146107ac578063b296024d146107e85761027c565b8063945c37cb1461061c5780639ddd89821461064c5780639f47c36f14610674578063a4d0a17e146106b0578063a90dca17146106c65761027c565b80633fc8cef3116101f257806376b16c03116101ab57806376b16c03146105305780637d9f6db51461054c5780638456cb591461057657806385317a291461058c5780638da5cb5b146105b657806391492956146105e05761027c565b80633fc8cef3146104465780635112fabf146104705780635c975abb14610498578063659dd2b4146104c25780636dd83b5d146104de578063715018a61461051a5761027c565b80630fb5a6b4116102445780630fb5a6b4146103605780631d2a5c6e1461038a5780631ef2fc7e146103b45780632de45f18146103de57806336ebdb38146104085780633f4ba83a146104305761027c565b806301c11d9614610280578063040f739b146102aa578063055ad42e146102d257806309b85709146102fc5780630ba4e9ea14610338575b5f80fd5b34801561028b575f80fd5b50610294610a00565b6040516102a19190615b2c565b60405180910390f35b3480156102b5575f80fd5b506102d060048036038101906102cb9190615c0f565b610a24565b005b3480156102dd575f80fd5b506102e6611093565b6040516102f39190615ce6565b60405180910390f35b348015610307575f80fd5b50610322600480360381019061031d9190615cff565b611425565b60405161032f9190615e99565b60405180910390f35b348015610343575f80fd5b5061035e60048036038101906103599190615ef5565b61171d565b005b34801561036b575f80fd5b50610374611852565b6040516103819190615b2c565b60405180910390f35b348015610395575f80fd5b5061039e611876565b6040516103ab9190615f38565b60405180910390f35b3480156103bf575f80fd5b506103c861187c565b6040516103d59190615f60565b60405180910390f35b3480156103e9575f80fd5b506103f261188e565b6040516103ff9190615fd4565b60405180910390f35b348015610413575f80fd5b5061042e60048036038101906104299190616023565b6118b2565b005b34801561043b575f80fd5b50610444611983565b005b348015610451575f80fd5b5061045a611a50565b604051610467919061605d565b60405180910390f35b34801561047b575f80fd5b5061049660048036038101906104919190616076565b611a74565b005b3480156104a3575f80fd5b506104ac611b27565b6040516104b99190615f60565b60405180910390f35b6104dc60048036038101906104d791906160b4565b611b3c565b005b3480156104e9575f80fd5b5061050460048036038101906104ff91906160b4565b611b6e565b60405161051191906160ee565b60405180910390f35b348015610525575f80fd5b5061052e611b9a565b005b61054a600480360381019061054591906161bd565b611c21565b005b348015610557575f80fd5b50610560612366565b60405161056d9190616365565b60405180910390f35b348015610581575f80fd5b5061058a612774565b005b348015610597575f80fd5b506105a06127fa565b6040516105ad919061638d565b60405180910390f35b3480156105c1575f80fd5b506105ca612801565b6040516105d7919061605d565b60405180910390f35b3480156105eb575f80fd5b50610606600480360381019061060191906160b4565b612829565b604051610613919061644e565b60405180910390f35b348015610627575f80fd5b50610630612b3a565b60405161064397969594939291906164aa565b60405180910390f35b348015610657575f80fd5b50610672600480360381019061066d9190616517565b612bf8565b005b34801561067f575f80fd5b5061069a60048036038101906106959190616542565b612cee565b6040516106a79190615f60565b60405180910390f35b3480156106bb575f80fd5b506106c4612d18565b005b3480156106d1575f80fd5b506106ec60048036038101906106e791906160b4565b612d69565b6040516106f99190616653565b60405180910390f35b34801561070d575f80fd5b5061072860048036038101906107239190616858565b612f97565b005b610744600480360381019061073f919061689f565b61314e565b005b348015610751575f80fd5b5061075a613180565b6040516107679190615b2c565b60405180910390f35b34801561077b575f80fd5b50610796600480360381019061079191906168dd565b6131a4565b6040516107a39190615e99565b60405180910390f35b3480156107b7575f80fd5b506107d260048036038101906107cd9190615cff565b61345e565b6040516107df9190615e99565b60405180910390f35b3480156107f3575f80fd5b506107fc6136a7565b604051610809919061692a565b60405180910390f35b34801561081d575f80fd5b506108266136ba565b6040516108339190616963565b60405180910390f35b348015610847575f80fd5b50610862600480360381019061085d9190616a04565b6136df565b005b34801561086f575f80fd5b5061088a60048036038101906108859190616a68565b6138d7565b005b348015610897575f80fd5b506108a0613a48565b6040516108ad9190616ab3565b60405180910390f35b3480156108c1575f80fd5b506108dc60048036038101906108d79190616af6565b613a6d565b6040516108e99190615b2c565b60405180910390f35b3480156108fd575f80fd5b50610906613a82565b6040516109139190616b30565b60405180910390f35b348015610927575f80fd5b50610930613aab565b60405161093d9190616b69565b60405180910390f35b348015610951575f80fd5b5061096c60048036038101906109679190616b82565b613ad0565b005b348015610979575f80fd5b50610982613d13565b60405161098f919061638d565b60405180910390f35b3480156109a3575f80fd5b506109ac613d2c565b005b3480156109b9575f80fd5b506109d460048036038101906109cf9190616517565b613d86565b005b3480156109e1575f80fd5b506109ea613e7c565b6040516109f79190615b2c565b60405180910390f35b7f000000000000000000000000000000000000000000000000000000000000000081565b60cf5f9054906101000a900473ffffffffffffffffffffffffffffffffffffffff1673ffffffffffffffffffffffffffffffffffffffff163373ffffffffffffffffffffffffffffffffffffffff1614610aaa576040517f8034199900000000000000000000000000000000000000000000000000000000815260040160405180910390fd5b5f60ca6040518060e00160405290815f82015f9054906101000a90046bffffffffffffffffffffffff166bffffffffffffffffffffffff166bffffffffffffffffffffffff1681526020015f8201600c9054906101000a900463ffffffff1663ffffffff1663ffffffff1681526020015f820160109054906101000a90046fffffffffffffffffffffffffffffffff166fffffffffffffffffffffffffffffffff166fffffffffffffffffffffffffffffffff168152602001600182015f9054906101000a900464ffffffffff1664ffffffffff1664ffffffffff1681526020016001820160059054906101000a900464ffffffffff1664ffffffffff1664ffffffffff16815260200160018201600a9054906101000a900473ffffffffffffffffffffffffffffffffffffffff1673ffffffffffffffffffffffffffffffffffffffff1673ffffffffffffffffffffffffffffffffffffffff16815260200160018201601e9054906101000a900460ff16151515158152505090505f816060015164ffffffffff161480610c50575084815f01516bffffffffffffffffffffffff1614155b15610c9257846040517f4c6a6e54000000000000000000000000000000000000000000000000000000008152600401610c899190615b2c565b60405180910390fd5b8060c0015115610cce576040517f4f4fee1700000000000000000000000000000000000000000000000000000000815260040160405180910390fd5b806080015164ffffffffff16421015610d13576040517f03de710000000000000000000000000000000000000000000000000000000000815260040160405180910390fd5b5f60d25f8781526020019081526020015f209050610d35818360800151613e82565b610100851115610d7c57846040517f57446ffb000000000000000000000000000000000000000000000000000000008152600401610d739190615b2c565b60405180910390fd5b6002816002015f6101000a81548160ff02191690836002811115610da357610da2615c73565b5b0217905550828160050160146101000a81548160ff021916908315150217905550428160020160056101000a81548163ffffffff021916908363ffffffff1602179055508481600301819055508215610e77575f816005015f6101000a81548173ffffffffffffffffffffffffffffffffffffffff021916908373ffffffffffffffffffffffffffffffffffffffff1602179055505f816004015f6101000a8154816fffffffffffffffffffffffffffffffff02191690836fffffffffffffffffffffffffffffffff16021790555061104f565b60d45f8781526020019081526020015f205f8573ffffffffffffffffffffffffffffffffffffffff1673ffffffffffffffffffffffffffffffffffffffff1681526020019081526020015f205f9054906101000a900460ff16610f1157836040517f94b3e568000000000000000000000000000000000000000000000000000000008152600401610f08919061605d565b60405180910390fd5b83816005015f6101000a81548173ffffffffffffffffffffffffffffffffffffffff021916908373ffffffffffffffffffffffffffffffffffffffff160217905550610f778160020160019054906101000a900463ffffffff1663ffffffff1686613f02565b816004015f6101000a8154816fffffffffffffffffffffffffffffffff02191690836fffffffffffffffffffffffffffffffff160217905550806004015f9054906101000a90046fffffffffffffffffffffffffffffffff1660ca5f0160106101000a8154816fffffffffffffffffffffffffffffffff02191690836fffffffffffffffffffffffffffffffff1602179055508360ca600101600a6101000a81548173ffffffffffffffffffffffffffffffffffffffff021916908373ffffffffffffffffffffffffffffffffffffffff1602179055505b857f4daedd8eb28a40be2a26a3421f4e2de80fc8593681b5f3b537a9b1f83f28f7db86868660405161108393929190616bd2565b60405180910390a2505050505050565b5f8060ca6040518060e00160405290815f82015f9054906101000a90046bffffffffffffffffffffffff166bffffffffffffffffffffffff166bffffffffffffffffffffffff1681526020015f8201600c9054906101000a900463ffffffff1663ffffffff1663ffffffff1681526020015f820160109054906101000a90046fffffffffffffffffffffffffffffffff166fffffffffffffffffffffffffffffffff166fffffffffffffffffffffffffffffffff168152602001600182015f9054906101000a900464ffffffffff1664ffffffffff1664ffffffffff1681526020016001820160059054906101000a900464ffffffffff1664ffffffffff1664ffffffffff16815260200160018201600a9054906101000a900473ffffffffffffffffffffffffffffffffffffffff1673ffffffffffffffffffffffffffffffffffffffff1673ffffffffffffffffffffffffffffffffffffffff16815260200160018201601e9054906101000a900460ff16151515158152505090505f816060015164ffffffffff16148061122a57508060c001515b15611239576002915050611422565b5f60d25f835f01516bffffffffffffffffffffffff1681526020019081526020015f20604051806101200160405290815f820154815260200160018201548152602001600282015f9054906101000a900460ff16600281111561129f5761129e615c73565b5b60028111156112b1576112b0615c73565b5b81526020016002820160019054906101000a900463ffffffff1663ffffffff1663ffffffff1681526020016002820160059054906101000a900463ffffffff1663ffffffff1663ffffffff16815260200160038201548152602001600482015f9054906101000a90046fffffffffffffffffffffffffffffffff166fffffffffffffffffffffffffffffffff166fffffffffffffffffffffffffffffffff168152602001600582015f9054906101000a900473ffffffffffffffffffffffffffffffffffffffff1673ffffffffffffffffffffffffffffffffffffffff1673ffffffffffffffffffffffffffffffffffffffff1681526020016005820160149054906101000a900460ff16151515158152505090505f60028111156113d9576113d8615c73565b5b816040015160028111156113f0576113ef615c73565b5b1480156114085750816080015164ffffffffff164210155b1561141857600192505050611422565b8060400151925050505b90565b60605f60ca5f015f9054906101000a90046bffffffffffffffffffffffff166bffffffffffffffffffffffff16905080851115611497576040517f08c379a000000000000000000000000000000000000000000000000000000000815260040161148e90616c61565b60405180910390fd5b600185826114a59190616cac565b6114af9190616cdf565b67ffffffffffffffff8111156114c8576114c761667d565b5b60405190808252806020026020018201604052801561150157816020015b6114ee615987565b8152602001906001900390816114e65790505b5091505f61150d6159d3565b5f8790505b8381116117055760cc5f8281526020019081526020015f206040518060a00160405290815f82015f9054906101000a900463ffffffff1663ffffffff1663ffffffff1681526020015f820160049054906101000a900467ffffffffffffffff1667ffffffffffffffff1667ffffffffffffffff1681526020015f8201600c9054906101000a900473ffffffffffffffffffffffffffffffffffffffff1673ffffffffffffffffffffffffffffffffffffffff1673ffffffffffffffffffffffffffffffffffffffff168152602001600182015f9054906101000a900463ffffffff1663ffffffff1663ffffffff1681526020016001820160049054906101000a900460ff161515151581525050915085801561163857506001825f015163ffffffff1611155b6116f457838114801561165557506001825f015163ffffffff1611155b6116f45786825f015163ffffffff1611611705576040518060a00160405280835f015163ffffffff1681526020016116908460200151613fcb565b8152602001836040015173ffffffffffffffffffffffffffffffffffffffff168152602001828152602001836060015163ffffffff168152508584815181106116dc576116db616d12565b5b6020026020010181905250826116f190616d3f565b92505b806116fe90616d3f565b9050611512565b508184511115611713578184525b5050509392505050565b611725613fed565b73ffffffffffffffffffffffffffffffffffffffff16611743612801565b73ffffffffffffffffffffffffffffffffffffffff1614611799576040517f08c379a000000000000000000000000000000000000000000000000000000000815260040161179090616dd0565b60405180910390fd5b6201518066ffffffffffffff168166ffffffffffffff1611156117f1576040517f08c379a00000000000000000000000000000000000000000000000000000000081526004016117e890616e38565b60405180910390fd5b8060c960186101000a81548166ffffffffffffff021916908366ffffffffffffff1602179055507f1b55d9f7002bda4490f467e326f22a4a847629c0f2d1ed421607d318d25b410d816040516118479190616e86565b60405180910390a150565b7f000000000000000000000000000000000000000000000000000000000000000081565b60d05481565b60d15f9054906101000a900460ff1681565b7f000000000000000000000000000000000000000000000000000000000000000081565b6118ba613fed565b73ffffffffffffffffffffffffffffffffffffffff166118d8612801565b73ffffffffffffffffffffffffffffffffffffffff161461192e576040517f08c379a000000000000000000000000000000000000000000000000000000000815260040161192590616dd0565b60405180910390fd5b8060c9601f6101000a81548160ff021916908360ff1602179055507fec5ccd96cc77b6219e9d44143df916af68fc169339ea7de5008ff15eae13450d816040516119789190616ecf565b60405180910390a150565b61198b613fed565b73ffffffffffffffffffffffffffffffffffffffff166119a9612801565b73ffffffffffffffffffffffffffffffffffffffff16146119ff576040517f08c379a00000000000000000000000000000000000000000000000000000000081526004016119f690616dd0565b60405180910390fd5b611a07613ff4565b5f60ca6001015f9054906101000a900464ffffffffff1664ffffffffff161480611a40575060ca600101601e9054906101000a900460ff165b15611a4e57611a4d614094565b5b565b7f000000000000000000000000000000000000000000000000000000000000000081565b5f8290505b81811015611b225761071c8111158015611a9e57505f600a82611a9c9190616f15565b145b611b17575f60cc5f8381526020019081526020015f2090505f815f015f9054906101000a900463ffffffff1663ffffffff1603611b15576001815f015f6101000a81548163ffffffff021916908363ffffffff16021790555060018160010160046101000a81548160ff0219169083151502179055505b505b806001019050611a79565b505050565b5f60335f9054906101000a900460ff16905090565b6040517f58dc2cb300000000000000000000000000000000000000000000000000000000815260040160405180910390fd5b5f60cc5f8381526020019081526020015f206001015f9054906101000a900463ffffffff169050919050565b611ba2613fed565b73ffffffffffffffffffffffffffffffffffffffff16611bc0612801565b73ffffffffffffffffffffffffffffffffffffffff1614611c16576040517f08c379a0000000000000000000000000000000000000000000000000000000008152600401611c0d90616dd0565b60405180910390fd5b611c1f5f6146aa565b565b611c29611b27565b15611c69576040517f08c379a0000000000000000000000000000000000000000000000000000000008152600401611c6090616f8f565b60405180910390fd5b600260655403611cae576040517f08c379a0000000000000000000000000000000000000000000000000000000008152600401611ca590616ff7565b60405180910390fd5b60026065819055505f60ca6040518060e00160405290815f82015f9054906101000a90046bffffffffffffffffffffffff166bffffffffffffffffffffffff166bffffffffffffffffffffffff1681526020015f8201600c9054906101000a900463ffffffff1663ffffffff1663ffffffff1681526020015f820160109054906101000a90046fffffffffffffffffffffffffffffffff166fffffffffffffffffffffffffffffffff166fffffffffffffffffffffffffffffffff168152602001600182015f9054906101000a900464ffffffffff1664ffffffffff1664ffffffffff1681526020016001820160059054906101000a900464ffffffffff1664ffffffffff1664ffffffffff16815260200160018201600a9054906101000a900473ffffffffffffffffffffffffffffffffffffffff1673ffffffffffffffffffffffffffffffffffffffff1673ffffffffffffffffffffffffffffffffffffffff16815260200160018201601e9054906101000a900460ff161515151581525050905085815f01516bffffffffffffffffffffffff1614611e7c576040517f2ecdbe6200000000000000000000000000000000000000000000000000000000815260040160405180910390fd5b8060c0015115611eb8576040517f4f4fee1700000000000000000000000000000000000000000000000000000000815260040160405180910390fd5b806080015164ffffffffff164210611efc576040517f04a5e67c00000000000000000000000000000000000000000000000000000000815260040160405180910390fd5b7f00000000000000000000000000000000000000000000000000000000000000003414611f55576040517fd1ef4cea00000000000000000000000000000000000000000000000000000000815260040160405180910390fd5b60d45f8781526020019081526020015f205f3373ffffffffffffffffffffffffffffffffffffffff1673ffffffffffffffffffffffffffffffffffffffff1681526020019081526020015f205f9054906101000a900460ff1615611ff25733866040517f3a8b7b69000000000000000000000000000000000000000000000000000000008152600401611fe9929190617015565b60405180910390fd5b611ffb3361476d565b5f60d25f8881526020019081526020015f2090505f600281111561202257612021615c73565b5b816002015f9054906101000a900460ff16600281111561204557612044615c73565b5b14612099575f816002015f9054906101000a900460ff166040517f98d23bb000000000000000000000000000000000000000000000000000000000815260040161209092919061703c565b60405180910390fd5b5f801b816001015414612157575f336040516020016120b891906170a8565b60405160208183030381529060405280519060200120905061211f8585808060200260200160405190810160405280939291908181526020018383602002808284375f81840152601f19601f82011690508083019250505050505050836001015483614882565b612155576040517fb05e92fa00000000000000000000000000000000000000000000000000000000815260040160405180910390fd5b505b600160d45f8981526020019081526020015f205f3373ffffffffffffffffffffffffffffffffffffffff1673ffffffffffffffffffffffffffffffffffffffff1681526020019081526020015f205f6101000a81548160ff02191690831515021790555060d55f8881526020019081526020015f2033908060018154018082558091505060019003905f5260205f20015f9091909190916101000a81548173ffffffffffffffffffffffffffffffffffffffff021916908373ffffffffffffffffffffffffffffffffffffffff16021790555060018160020160018282829054906101000a900463ffffffff1661224e91906170c2565b92506101000a81548163ffffffff021916908363ffffffff16021790555060ce5f9054906101000a900473ffffffffffffffffffffffffffffffffffffffff1673ffffffffffffffffffffffffffffffffffffffff1663b6695b41825f015488886040518463ffffffff1660e01b81526004016122cd93929190617143565b5f604051808303815f875af11580156122e8573d5f803e3d5ffd5b505050506040513d5f823e3d601f19601f82011682018060405250810190612310919061723d565b503373ffffffffffffffffffffffffffffffffffffffff16877f2bea1bc4b38cab6d8217c5b08ed74bde65a5879703ec0745be73dd150049fa5c60405160405180910390a3505060016065819055505050505050565b61236e615a2b565b5f60ca6040518060e00160405290815f82015f9054906101000a90046bffffffffffffffffffffffff166bffffffffffffffffffffffff166bffffffffffffffffffffffff1681526020015f8201600c9054906101000a900463ffffffff1663ffffffff1663ffffffff1681526020015f820160109054906101000a90046fffffffffffffffffffffffffffffffff166fffffffffffffffffffffffffffffffff166fffffffffffffffffffffffffffffffff168152602001600182015f9054906101000a900464ffffffffff1664ffffffffff1664ffffffffff1681526020016001820160059054906101000a900464ffffffffff1664ffffffffff1664ffffffffff16815260200160018201600a9054906101000a900473ffffffffffffffffffffffffffffffffffffffff1673ffffffffffffffffffffffffffffffffffffffff1673ffffffffffffffffffffffffffffffffffffffff16815260200160018201601e9054906101000a900460ff16151515158152505090505f60d25f835f01516bffffffffffffffffffffffff1681526020019081526020015f20604051806101200160405290815f820154815260200160018201548152602001600282015f9054906101000a900460ff1660028111156125505761254f615c73565b5b600281111561256257612561615c73565b5b81526020016002820160019054906101000a900463ffffffff1663ffffffff1663ffffffff1681526020016002820160059054906101000a900463ffffffff1663ffffffff1663ffffffff16815260200160038201548152602001600482015f9054906101000a90046fffffffffffffffffffffffffffffffff166fffffffffffffffffffffffffffffffff166fffffffffffffffffffffffffffffffff168152602001600582015f9054906101000a900473ffffffffffffffffffffffffffffffffffffffff1673ffffffffffffffffffffffffffffffffffffffff1673ffffffffffffffffffffffffffffffffffffffff1681526020016005820160149054906101000a900460ff16151515158152505090506040518060c00160405280835f01516bffffffffffffffffffffffff1681526020016002808111156126ac576126ab615c73565b5b836040015160028111156126c3576126c2615c73565b5b146126ce575f6126d4565b8260c001515b6fffffffffffffffffffffffffffffffff168152602001836060015164ffffffffff168152602001836080015164ffffffffff1681526020016002808111156127205761271f615c73565b5b8360400151600281111561273757612736615c73565b5b14612742575f612748565b8260e001515b73ffffffffffffffffffffffffffffffffffffffff1681526020018360c0015115158152509250505090565b61277c613fed565b73ffffffffffffffffffffffffffffffffffffffff1661279a612801565b73ffffffffffffffffffffffffffffffffffffffff16146127f0576040517f08c379a00000000000000000000000000000000000000000000000000000000081526004016127e790616dd0565b60405180910390fd5b6127f8614898565b565b6201518081565b5f60975f9054906101000a900473ffffffffffffffffffffffffffffffffffffffff16905090565b60605f60ca5f015f9054906101000a90046bffffffffffffffffffffffff166bffffffffffffffffffffffff16905060ca600101601e9054906101000a900460ff1615801561287757505f81115b1561288c576001816128899190616cac565b90505b8267ffffffffffffffff8111156128a6576128a561667d565b5b6040519080825280602002602001820160405280156128d45781602001602082028036833780820191505090505b5091505f6128e06159d3565b5f8390505b5f811180156128f357508583105b15612aef5761071c811115801561291557505f600a826129139190616f15565b145b612ade5760cc5f8281526020019081526020015f206040518060a00160405290815f82015f9054906101000a900463ffffffff1663ffffffff1663ffffffff1681526020015f820160049054906101000a900467ffffffffffffffff1667ffffffffffffffff1667ffffffffffffffff1681526020015f8201600c9054906101000a900473ffffffffffffffffffffffffffffffffffffffff1673ffffffffffffffffffffffffffffffffffffffff1673ffffffffffffffffffffffffffffffffffffffff168152602001600182015f9054906101000a900463ffffffff1663ffffffff1663ffffffff1681526020016001820160049054906101000a900460ff16151515158152505091506001825f015163ffffffff1611612a6d576040517f08c379a0000000000000000000000000000000000000000000000000000000008152600401612a64906172ce565b60405180910390fd5b5f73ffffffffffffffffffffffffffffffffffffffff16826040015173ffffffffffffffffffffffffffffffffffffffff160315612ade57612ab28260200151613fcb565b858481518110612ac557612ac4616d12565b5b60200260200101818152505082612adb90616d3f565b92505b80612ae8906172ec565b90506128e5565b50818514612b32576040517f08c379a0000000000000000000000000000000000000000000000000000000008152600401612b299061735d565b60405180910390fd5b505050919050565b60ca805f015f9054906101000a90046bffffffffffffffffffffffff1690805f01600c9054906101000a900463ffffffff1690805f0160109054906101000a90046fffffffffffffffffffffffffffffffff1690806001015f9054906101000a900464ffffffffff16908060010160059054906101000a900464ffffffffff169080600101600a9054906101000a900473ffffffffffffffffffffffffffffffffffffffff169080600101601e9054906101000a900460ff16905087565b612c00613fed565b73ffffffffffffffffffffffffffffffffffffffff16612c1e612801565b73ffffffffffffffffffffffffffffffffffffffff1614612c74576040517f08c379a0000000000000000000000000000000000000000000000000000000008152600401612c6b90616dd0565b60405180910390fd5b8060cd5f6101000a81548173ffffffffffffffffffffffffffffffffffffffff021916908373ffffffffffffffffffffffffffffffffffffffff1602179055507fa917c3b8ce8404f93eeba37a73e16eefcc65cf43ec166ab2a230571577b0695f81604051612ce3919061605d565b60405180910390a150565b60d4602052815f5260405f20602052805f5260405f205f915091509054906101000a900460ff1681565b612d20611b27565b612d5f576040517f08c379a0000000000000000000000000000000000000000000000000000000008152600401612d56906173c5565b60405180910390fd5b612d6761493a565b565b612d71615aa1565b5f60d25f8481526020019081526020015f20604051806101200160405290815f820154815260200160018201548152602001600282015f9054906101000a900460ff166002811115612dc657612dc5615c73565b5b6002811115612dd857612dd7615c73565b5b81526020016002820160019054906101000a900463ffffffff1663ffffffff1663ffffffff1681526020016002820160059054906101000a900463ffffffff1663ffffffff1663ffffffff16815260200160038201548152602001600482015f9054906101000a90046fffffffffffffffffffffffffffffffff166fffffffffffffffffffffffffffffffff166fffffffffffffffffffffffffffffffff168152602001600582015f9054906101000a900473ffffffffffffffffffffffffffffffffffffffff1673ffffffffffffffffffffffffffffffffffffffff1673ffffffffffffffffffffffffffffffffffffffff1681526020016005820160149054906101000a900460ff1615151515815250509050604051806101200160405280848152602001825f015181526020018260200151815260200182604001516002811115612f2957612f28615c73565b5b8152602001826060015163ffffffff1681526020018260a0015181526020018260c001516fffffffffffffffffffffffffffffffff1681526020018260e0015173ffffffffffffffffffffffffffffffffffffffff1681526020018261010001511515815250915050919050565b612f9f613fed565b73ffffffffffffffffffffffffffffffffffffffff16612fbd612801565b73ffffffffffffffffffffffffffffffffffffffff1614613013576040517f08c379a000000000000000000000000000000000000000000000000000000000815260040161300a90616dd0565b60405180910390fd5b5f5b815181101561314a575f60cc5f84848151811061303557613034616d12565b5b60200260200101516060015181526020019081526020015f20905082828151811061306357613062616d12565b5b60200260200101515f0151815f015f6101000a81548163ffffffff021916908363ffffffff1602179055506130b58383815181106130a4576130a3616d12565b5b602002602001015160200151615163565b815f0160046101000a81548167ffffffffffffffff021916908367ffffffffffffffff1602179055508282815181106130f1576130f0616d12565b5b602002602001015160400151815f01600c6101000a81548173ffffffffffffffffffffffffffffffffffffffff021916908373ffffffffffffffffffffffffffffffffffffffff16021790555050806001019050613015565b5050565b6040517f58dc2cb300000000000000000000000000000000000000000000000000000000815260040160405180910390fd5b7f000000000000000000000000000000000000000000000000000000000000000081565b60605f60ca5f015f9054906101000a90046bffffffffffffffffffffffff166bffffffffffffffffffffffff16905060ca600101601e9054906101000a900460ff161580156131f257505f81115b15613207576001816132049190616cac565b90505b8367ffffffffffffffff8111156132215761322061667d565b5b60405190808252806020026020018201604052801561325a57816020015b613247615987565b81526020019060019003908161323f5790505b5091505f6132666159d3565b5f8390505b868310156134485760cc5f8281526020019081526020015f206040518060a00160405290815f82015f9054906101000a900463ffffffff1663ffffffff1663ffffffff1681526020015f820160049054906101000a900467ffffffffffffffff1667ffffffffffffffff1667ffffffffffffffff1681526020015f8201600c9054906101000a900473ffffffffffffffffffffffffffffffffffffffff1673ffffffffffffffffffffffffffffffffffffffff1673ffffffffffffffffffffffffffffffffffffffff168152602001600182015f9054906101000a900463ffffffff1663ffffffff1663ffffffff1681526020016001820160049054906101000a900460ff161515151581525050915085801561339257506001825f015163ffffffff1611155b156133a4575f81031561344857613437565b6040518060a00160405280835f015163ffffffff1681526020016133cb8460200151613fcb565b8152602001836040015173ffffffffffffffffffffffffffffffffffffffff168152602001828152602001836060015163ffffffff1681525085848151811061341757613416616d12565b5b60200260200101819052508261342c90616d3f565b92505f810315613448575b80613441906172ec565b905061326b565b5081861115613455578184525b50505092915050565b6060838361346c9190616cac565b67ffffffffffffffff8111156134855761348461667d565b5b6040519080825280602002602001820160405280156134be57816020015b6134ab615987565b8152602001906001900390816134a35790505b5090505f6134ca6159d3565b5f8690505b858110156136905760cc5f8281526020019081526020015f206040518060a00160405290815f82015f9054906101000a900463ffffffff1663ffffffff1663ffffffff1681526020015f820160049054906101000a900467ffffffffffffffff1667ffffffffffffffff1667ffffffffffffffff1681526020015f8201600c9054906101000a900473ffffffffffffffffffffffffffffffffffffffff1673ffffffffffffffffffffffffffffffffffffffff1673ffffffffffffffffffffffffffffffffffffffff168152602001600182015f9054906101000a900463ffffffff1663ffffffff1663ffffffff1681526020016001820160049054906101000a900460ff16151515158152505091508480156135f657506001825f015163ffffffff1611155b613685576040518060a00160405280835f015163ffffffff1681526020016136218460200151613fcb565b8152602001836040015173ffffffffffffffffffffffffffffffffffffffff168152602001828152602001836060015163ffffffff1681525084848151811061366d5761366c616d12565b5b60200260200101819052508261368290616d3f565b92505b8060010190506134cf565b50818351111561369e578183525b50509392505050565b60c9601f9054906101000a900460ff1681565b60cd5f9054906101000a900473ffffffffffffffffffffffffffffffffffffffff1681565b5f60019054906101000a900460ff168061370357505f8054906101000a900460ff16155b613742576040517f08c379a000000000000000000000000000000000000000000000000000000000815260040161373990617453565b60405180910390fd5b5f8060019054906101000a900460ff16159050801561378f5760015f60016101000a81548160ff02191690831515021790555060015f806101000a81548160ff0219169083151502179055505b61379761517b565b61379f61525e565b6137a7615339565b6137af614898565b8460c95f6101000a81548177ffffffffffffffffffffffffffffffffffffffffffffffff021916908377ffffffffffffffffffffffffffffffffffffffffffffffff1602179055508360c960186101000a81548166ffffffffffffff021916908366ffffffffffffff1602179055508260c9601f6101000a81548160ff021916908360ff1602179055508160cd5f6101000a81548173ffffffffffffffffffffffffffffffffffffffff021916908373ffffffffffffffffffffffffffffffffffffffff1602179055507fa917c3b8ce8404f93eeba37a73e16eefcc65cf43ec166ab2a230571577b0695f826040516138a8919061605d565b60405180910390a180156138d0575f8060016101000a81548160ff0219169083151502179055505b5050505050565b6138df613fed565b73ffffffffffffffffffffffffffffffffffffffff166138fd612801565b73ffffffffffffffffffffffffffffffffffffffff1614613953576040517f08c379a000000000000000000000000000000000000000000000000000000000815260040161394a90616dd0565b60405180910390fd5b7f00000000000000000000000000000000000000000000000000000000000000008177ffffffffffffffffffffffffffffffffffffffffffffffff16146139c6576040517fcfc7d5dc00000000000000000000000000000000000000000000000000000000815260040160405180910390fd5b8060c95f6101000a81548177ffffffffffffffffffffffffffffffffffffffffffffffff021916908377ffffffffffffffffffffffffffffffffffffffffffffffff1602179055507f6ab2e127d7fdf53b8f304e59d3aab5bfe97979f52a85479691a6fab27a28a6b281604051613a3d91906174a1565b60405180910390a150565b60cf5f9054906101000a900473ffffffffffffffffffffffffffffffffffffffff1681565b60d3602052805f5260405f205f915090505481565b60c95f9054906101000a900477ffffffffffffffffffffffffffffffffffffffffffffffff1681565b60ce5f9054906101000a900473ffffffffffffffffffffffffffffffffffffffff1681565b613ad8613fed565b73ffffffffffffffffffffffffffffffffffffffff16613af6612801565b73ffffffffffffffffffffffffffffffffffffffff1614613b4c576040517f08c379a0000000000000000000000000000000000000000000000000000000008152600401613b4390616dd0565b60405180910390fd5b60d15f9054906101000a900460ff1615613b92576040517f4919f9bf00000000000000000000000000000000000000000000000000000000815260040160405180910390fd5b5f60ca6001015f9054906101000a900464ffffffffff1664ffffffffff1614158015613bce575060ca600101601e9054906101000a900460ff16155b15613c05576040517f6bbaf8a900000000000000000000000000000000000000000000000000000000815260040160405180910390fd5b8260ce5f6101000a81548173ffffffffffffffffffffffffffffffffffffffff021916908373ffffffffffffffffffffffffffffffffffffffff1602179055508160cf5f6101000a81548173ffffffffffffffffffffffffffffffffffffffff021916908373ffffffffffffffffffffffffffffffffffffffff1602179055508060d0819055507f000000000000000000000000000000000000000000000000000000000000000060c95f6101000a81548177ffffffffffffffffffffffffffffffffffffffffffffffff021916908377ffffffffffffffffffffffffffffffffffffffffffffffff160217905550600160d15f6101000a81548160ff021916908315150217905550505050565b60c960189054906101000a900466ffffffffffffff1681565b613d34611b27565b15613d74576040517f08c379a0000000000000000000000000000000000000000000000000000000008152600401613d6b90616f8f565b60405180910390fd5b613d7c61493a565b613d84614094565b565b613d8e613fed565b73ffffffffffffffffffffffffffffffffffffffff16613dac612801565b73ffffffffffffffffffffffffffffffffffffffff1614613e02576040517f08c379a0000000000000000000000000000000000000000000000000000000008152600401613df990616dd0565b60405180910390fd5b5f73ffffffffffffffffffffffffffffffffffffffff168173ffffffffffffffffffffffffffffffffffffffff1603613e70576040517f08c379a0000000000000000000000000000000000000000000000000000000008152600401613e679061752a565b60405180910390fd5b613e79816146aa565b50565b61010081565b5f6002811115613e9557613e94615c73565b5b826002015f9054906101000a900460ff166002811115613eb857613eb7615c73565b5b148015613ecc57508064ffffffffff164210155b15613efe576001826002015f6101000a81548160ff02191690836002811115613ef857613ef7615c73565b5b02179055505b5050565b5f60018303613f33577f00000000000000000000000000000000000000000000000000000000000000009050613fc5565b6101007f00000000000000000000000000000000000000000000000000000000000000007f0000000000000000000000000000000000000000000000000000000000000000613f829190616cac565b83613f8d9190617548565b613f979190617589565b7f0000000000000000000000000000000000000000000000000000000000000000613fc29190616cdf565b90505b92915050565b5f6305f5e1008267ffffffffffffffff16613fe69190617548565b9050919050565b5f33905090565b613ffc611b27565b61403b576040517f08c379a0000000000000000000000000000000000000000000000000000000008152600401614032906173c5565b60405180910390fd5b5f60335f6101000a81548160ff0219169083151502179055507f5db9ee0a495bf2e6ff9c91a7834c1ba4fdd244a5e8aa4e537bd38aeae4b073aa61407d613fed565b60405161408a919061605d565b60405180910390a1565b7f000000000000000000000000000000000000000000000000000000000000000073ffffffffffffffffffffffffffffffffffffffff16631249c58b6040518163ffffffff1660e01b81526004016020604051808303815f875af192505050801561411d57506040513d601f19601f8201168201806040525081019061411a91906175cd565b60015b61416557614129617604565b806308c379a003614156575061413d617623565b806141485750614158565b614150614898565b50614160565b505b3d5f803e3d5ffd5b6146a8565b5f4290505f7f00000000000000000000000000000000000000000000000000000000000000008261419691906176b2565b90505f60ce5f9054906101000a900473ffffffffffffffffffffffffffffffffffffffff1673ffffffffffffffffffffffffffffffffffffffff1663e349487a604051806040016040528060cf5f9054906101000a900473ffffffffffffffffffffffffffffffffffffffff1673ffffffffffffffffffffffffffffffffffffffff1681526020018760d0546040516020016142339291906176ea565b6040516020818303038152906040528152506040518263ffffffff1660e01b8152600401614261919061779d565b6020604051808303815f875af115801561427d573d5f803e3d5ffd5b505050506040513d601f19601f820116820180604052508101906142a191906177d1565b90506040518060e00160405280856bffffffffffffffffffffffff1681526020015f63ffffffff1681526020015f6fffffffffffffffffffffffffffffffff1681526020018464ffffffffff1681526020018364ffffffffff1681526020015f73ffffffffffffffffffffffffffffffffffffffff1681526020015f151581525060ca5f820151815f015f6101000a8154816bffffffffffffffffffffffff02191690836bffffffffffffffffffffffff1602179055506020820151815f01600c6101000a81548163ffffffff021916908363ffffffff1602179055506040820151815f0160106101000a8154816fffffffffffffffffffffffffffffffff02191690836fffffffffffffffffffffffffffffffff1602179055506060820151816001015f6101000a81548164ffffffffff021916908364ffffffffff16021790555060808201518160010160056101000a81548164ffffffffff021916908364ffffffffff16021790555060a082015181600101600a6101000a81548173ffffffffffffffffffffffffffffffffffffffff021916908373ffffffffffffffffffffffffffffffffffffffff16021790555060c082015181600101601e6101000a81548160ff02191690831515021790555090505060405180610120016040528082815260200160d05481526020015f60028111156144a4576144a3615c73565b5b81526020015f63ffffffff1681526020015f63ffffffff1681526020015f81526020015f6fffffffffffffffffffffffffffffffff1681526020015f73ffffffffffffffffffffffffffffffffffffffff1681526020015f151581525060d25f8681526020019081526020015f205f820151815f0155602082015181600101556040820151816002015f6101000a81548160ff0219169083600281111561454e5761454d615c73565b5b021790555060608201518160020160016101000a81548163ffffffff021916908363ffffffff16021790555060808201518160020160056101000a81548163ffffffff021916908363ffffffff16021790555060a0820151816003015560c0820151816004015f6101000a8154816fffffffffffffffffffffffffffffffff02191690836fffffffffffffffffffffffffffffffff16021790555060e0820151816005015f6101000a81548173ffffffffffffffffffffffffffffffffffffffff021916908373ffffffffffffffffffffffffffffffffffffffff1602179055506101008201518160050160146101000a81548160ff0219169083151502179055509050508360d35f8381526020019081526020015f2081905550837fd6eddd1118d71820909c1197aa966dbc15ed6f508554252169cc3d5ccac756ca848460405161469b92919061782c565b60405180910390a2505050505b565b5f60975f9054906101000a900473ffffffffffffffffffffffffffffffffffffffff1690508160975f6101000a81548173ffffffffffffffffffffffffffffffffffffffff021916908373ffffffffffffffffffffffffffffffffffffffff1602179055508173ffffffffffffffffffffffffffffffffffffffff168173ffffffffffffffffffffffffffffffffffffffff167f8be0079c531659141344cd1fd0a4f28419497f9722a3daafe3b4186f6b6457e060405160405180910390a35050565b5f60cd5f9054906101000a900473ffffffffffffffffffffffffffffffffffffffff1690505f73ffffffffffffffffffffffffffffffffffffffff168173ffffffffffffffffffffffffffffffffffffffff161461487e578073ffffffffffffffffffffffffffffffffffffffff1663df592f7d836040518263ffffffff1660e01b81526004016147fe919061605d565b602060405180830381865afa158015614819573d5f803e3d5ffd5b505050506040513d601f19601f8201168201806040525081019061483d9190617867565b1561487d576040517f08c379a0000000000000000000000000000000000000000000000000000000008152600401614874906178dc565b60405180910390fd5b5b5050565b5f8261488e858461541c565b1490509392505050565b6148a0611b27565b156148e0576040517f08c379a00000000000000000000000000000000000000000000000000000000081526004016148d790616f8f565b60405180910390fd5b600160335f6101000a81548160ff0219169083151502179055507f62e78cea01bee320cd4e420270b5ea74000d11b0c9f74754ebdbfc544b05a258614923613fed565b604051614930919061605d565b60405180910390a1565b60026065540361497f576040517f08c379a000000000000000000000000000000000000000000000000000000000815260040161497690616ff7565b60405180910390fd5b60026065819055505f60ca6040518060e00160405290815f82015f9054906101000a90046bffffffffffffffffffffffff166bffffffffffffffffffffffff166bffffffffffffffffffffffff1681526020015f8201600c9054906101000a900463ffffffff1663ffffffff1663ffffffff1681526020015f820160109054906101000a90046fffffffffffffffffffffffffffffffff166fffffffffffffffffffffffffffffffff166fffffffffffffffffffffffffffffffff168152602001600182015f9054906101000a900464ffffffffff1664ffffffffff1664ffffffffff1681526020016001820160059054906101000a900464ffffffffff1664ffffffffff1664ffffffffff16815260200160018201600a9054906101000a900473ffffffffffffffffffffffffffffffffffffffff1673ffffffffffffffffffffffffffffffffffffffff1673ffffffffffffffffffffffffffffffffffffffff16815260200160018201601e9054906101000a900460ff16151515158152505090505f816060015164ffffffffff1603614b50576040517f08c379a0000000000000000000000000000000000000000000000000000000008152600401614b4790617944565b60405180910390fd5b8060c0015115614b8c576040517f4f4fee1700000000000000000000000000000000000000000000000000000000815260040160405180910390fd5b806080015164ffffffffff16421015614bd1576040517f03de710000000000000000000000000000000000000000000000000000000000815260040160405180910390fd5b5f60d25f835f01516bffffffffffffffffffffffff1681526020019081526020015f209050614c04818360800151613e82565b600280811115614c1757614c16615c73565b5b816002015f9054906101000a900460ff166002811115614c3a57614c39615c73565b5b14614c71576040517fe84afe3e00000000000000000000000000000000000000000000000000000000815260040160405180910390fd5b600160ca600101601e6101000a81548160ff0219169083151502179055508060050160149054906101000a900460ff1680614cc557505f8160020160019054906101000a900463ffffffff1663ffffffff16145b15614d58577f000000000000000000000000000000000000000000000000000000000000000073ffffffffffffffffffffffffffffffffffffffff166342966c68835f01516040518263ffffffff1660e01b8152600401614d269190617992565b5f604051808303815f87803b158015614d3d575f80fd5b505af1158015614d4f573d5f803e3d5ffd5b50505050614e4b565b7f000000000000000000000000000000000000000000000000000000000000000073ffffffffffffffffffffffffffffffffffffffff166323b872dd30836005015f9054906101000a900473ffffffffffffffffffffffffffffffffffffffff16855f01516040518463ffffffff1660e01b8152600401614ddb939291906179cb565b5f604051808303815f87803b158015614df2575f80fd5b505af1158015614e04573d5f803e3d5ffd5b50505050614e4a614e13612801565b826004015f9054906101000a90046fffffffffffffffffffffffffffffffff166fffffffffffffffffffffffffffffffff166154c6565b5b5f60d55f845f01516bffffffffffffffffffffffff1681526020019081526020015f2090505f5b8180549050811015614fb9575f828281548110614e9257614e91616d12565b5b905f5260205f20015f9054906101000a900473ffffffffffffffffffffffffffffffffffffffff1690505f846005015f9054906101000a900473ffffffffffffffffffffffffffffffffffffffff1673ffffffffffffffffffffffffffffffffffffffff168273ffffffffffffffffffffffffffffffffffffffff1614614f39577f0000000000000000000000000000000000000000000000000000000000000000614f97565b846004015f9054906101000a90046fffffffffffffffffffffffffffffffff166fffffffffffffffffffffffffffffffff167f0000000000000000000000000000000000000000000000000000000000000000614f969190616cac565b5b90505f811115614fac57614fab82826154c6565b5b5050806001019050614e72565b505f60cc5f855f01516bffffffffffffffffffffffff1681526020019081526020015f20905042815f015f6101000a81548163ffffffff021916908363ffffffff16021790555061503a836004015f9054906101000a90046fffffffffffffffffffffffffffffffff166fffffffffffffffffffffffffffffffff16615163565b815f0160046101000a81548167ffffffffffffffff021916908367ffffffffffffffff160217905550826005015f9054906101000a900473ffffffffffffffffffffffffffffffffffffffff16815f01600c6101000a81548173ffffffffffffffffffffffffffffffffffffffff021916908373ffffffffffffffffffffffffffffffffffffffff160217905550835f01516bffffffffffffffffffffffff167fc9f72b276a388619c6d185d146697036241880c36654b1a3ffdad07c24038d99846005015f9054906101000a900473ffffffffffffffffffffffffffffffffffffffff16856004015f9054906101000a90046fffffffffffffffffffffffffffffffff1660405161514d929190617a30565b60405180910390a2505050506001606581905550565b5f6305f5e100826151749190617589565b9050919050565b5f60019054906101000a900460ff168061519f57505f8054906101000a900460ff16155b6151de576040517f08c379a00000000000000000000000000000000000000000000000000000000081526004016151d590617453565b60405180910390fd5b5f8060019054906101000a900460ff16159050801561522b5760015f60016101000a81548160ff02191690831515021790555060015f806101000a81548160ff0219169083151502179055505b6152336155f2565b61523b6156c5565b801561525b575f8060016101000a81548160ff0219169083151502179055505b50565b5f60019054906101000a900460ff168061528257505f8054906101000a900460ff16155b6152c1576040517f08c379a00000000000000000000000000000000000000000000000000000000081526004016152b890617453565b60405180910390fd5b5f8060019054906101000a900460ff16159050801561530e5760015f60016101000a81548160ff02191690831515021790555060015f806101000a81548160ff0219169083151502179055505b6153166157b1565b8015615336575f8060016101000a81548160ff0219169083151502179055505b50565b5f60019054906101000a900460ff168061535d57505f8054906101000a900460ff16155b61539c576040517f08c379a000000000000000000000000000000000000000000000000000000000815260040161539390617453565b60405180910390fd5b5f8060019054906101000a900460ff1615905080156153e95760015f60016101000a81548160ff02191690831515021790555060015f806101000a81548160ff0219169083151502179055505b6153f16155f2565b6153f961588c565b8015615419575f8060016101000a81548160ff0219169083151502179055505b50565b5f808290505f5b84518110156154bb575f8582815181106154405761543f616d12565b5b60200260200101519050808311615481578281604051602001615464929190617a77565b6040516020818303038152906040528051906020012092506154ad565b8083604051602001615494929190617a77565b6040516020818303038152906040528051906020012092505b508080600101915050615423565b508091505092915050565b6154d0828261596f565b6155ee577f000000000000000000000000000000000000000000000000000000000000000073ffffffffffffffffffffffffffffffffffffffff1663d0e30db0826040518263ffffffff1660e01b81526004015f604051808303818588803b15801561553a575f80fd5b505af115801561554c573d5f803e3d5ffd5b50505050507f000000000000000000000000000000000000000000000000000000000000000073ffffffffffffffffffffffffffffffffffffffff1663a9059cbb83836040518363ffffffff1660e01b81526004016155ac929190617015565b6020604051808303815f875af11580156155c8573d5f803e3d5ffd5b505050506040513d601f19601f820116820180604052508101906155ec9190617867565b505b5050565b5f60019054906101000a900460ff168061561657505f8054906101000a900460ff16155b615655576040517f08c379a000000000000000000000000000000000000000000000000000000000815260040161564c90617453565b60405180910390fd5b5f8060019054906101000a900460ff1615905080156156a25760015f60016101000a81548160ff02191690831515021790555060015f806101000a81548160ff0219169083151502179055505b80156156c2575f8060016101000a81548160ff0219169083151502179055505b50565b5f60019054906101000a900460ff16806156e957505f8054906101000a900460ff16155b615728576040517f08c379a000000000000000000000000000000000000000000000000000000000815260040161571f90617453565b60405180910390fd5b5f8060019054906101000a900460ff1615905080156157755760015f60016101000a81548160ff02191690831515021790555060015f806101000a81548160ff0219169083151502179055505b5f60335f6101000a81548160ff02191690831515021790555080156157ae575f8060016101000a81548160ff0219169083151502179055505b50565b5f60019054906101000a900460ff16806157d557505f8054906101000a900460ff16155b615814576040517f08c379a000000000000000000000000000000000000000000000000000000000815260040161580b90617453565b60405180910390fd5b5f8060019054906101000a900460ff1615905080156158615760015f60016101000a81548160ff02191690831515021790555060015f806101000a81548160ff0219169083151502179055505b60016065819055508015615889575f8060016101000a81548160ff0219169083151502179055505b50565b5f60019054906101000a900460ff16806158b057505f8054906101000a900460ff16155b6158ef576040517f08c379a00000000000000000000000000000000000000000000000000000000081526004016158e690617453565b60405180910390fd5b5f8060019054906101000a900460ff16159050801561593c5760015f60016101000a81548160ff02191690831515021790555060015f806101000a81548160ff0219169083151502179055505b61594c615947613fed565b6146aa565b801561596c575f8060016101000a81548160ff0219169083151502179055505b50565b5f805f805f808688617530f190508091505092915050565b6040518060a001604052805f63ffffffff1681526020015f81526020015f73ffffffffffffffffffffffffffffffffffffffff1681526020015f81526020015f63ffffffff1681525090565b6040518060a001604052805f63ffffffff1681526020015f67ffffffffffffffff1681526020015f73ffffffffffffffffffffffffffffffffffffffff1681526020015f63ffffffff1681526020015f151581525090565b6040518060c001604052805f6bffffffffffffffffffffffff1681526020015f6fffffffffffffffffffffffffffffffff1681526020015f64ffffffffff1681526020015f64ffffffffff1681526020015f73ffffffffffffffffffffffffffffffffffffffff1681526020015f151581525090565b6040518061012001604052805f81526020015f80191681526020015f80191681526020015f6002811115615ad857615ad7615c73565b5b81526020015f81526020015f81526020015f81526020015f73ffffffffffffffffffffffffffffffffffffffff1681526020015f151581525090565b5f819050919050565b615b2681615b14565b82525050565b5f602082019050615b3f5f830184615b1d565b92915050565b5f604051905090565b5f80fd5b5f80fd5b615b5f81615b14565b8114615b69575f80fd5b50565b5f81359050615b7a81615b56565b92915050565b5f73ffffffffffffffffffffffffffffffffffffffff82169050919050565b5f615ba982615b80565b9050919050565b615bb981615b9f565b8114615bc3575f80fd5b50565b5f81359050615bd481615bb0565b92915050565b5f8115159050919050565b615bee81615bda565b8114615bf8575f80fd5b50565b5f81359050615c0981615be5565b92915050565b5f805f8060808587031215615c2757615c26615b4e565b5b5f615c3487828801615b6c565b9450506020615c4587828801615b6c565b9350506040615c5687828801615bc6565b9250506060615c6787828801615bfb565b91505092959194509250565b7f4e487b71000000000000000000000000000000000000000000000000000000005f52602160045260245ffd5b60038110615cb157615cb0615c73565b5b50565b5f819050615cc182615ca0565b919050565b5f615cd082615cb4565b9050919050565b615ce081615cc6565b82525050565b5f602082019050615cf95f830184615cd7565b92915050565b5f805f60608486031215615d1657615d15615b4e565b5b5f615d2386828701615b6c565b9350506020615d3486828701615b6c565b9250506040615d4586828701615bfb565b9150509250925092565b5f81519050919050565b5f82825260208201905092915050565b5f819050602082019050919050565b5f63ffffffff82169050919050565b615d9081615d78565b82525050565b615d9f81615b14565b82525050565b615dae81615b9f565b82525050565b60a082015f820151615dc85f850182615d87565b506020820151615ddb6020850182615d96565b506040820151615dee6040850182615da5565b506060820151615e016060850182615d96565b506080820151615e146080850182615d87565b50505050565b5f615e258383615db4565b60a08301905092915050565b5f602082019050919050565b5f615e4782615d4f565b615e518185615d59565b9350615e5c83615d69565b805f5b83811015615e8c578151615e738882615e1a565b9750615e7e83615e31565b925050600181019050615e5f565b5085935050505092915050565b5f6020820190508181035f830152615eb18184615e3d565b905092915050565b5f66ffffffffffffff82169050919050565b615ed481615eb9565b8114615ede575f80fd5b50565b5f81359050615eef81615ecb565b92915050565b5f60208284031215615f0a57615f09615b4e565b5b5f615f1784828501615ee1565b91505092915050565b5f819050919050565b615f3281615f20565b82525050565b5f602082019050615f4b5f830184615f29565b92915050565b615f5a81615bda565b82525050565b5f602082019050615f735f830184615f51565b92915050565b5f819050919050565b5f615f9c615f97615f9284615b80565b615f79565b615b80565b9050919050565b5f615fad82615f82565b9050919050565b5f615fbe82615fa3565b9050919050565b615fce81615fb4565b82525050565b5f602082019050615fe75f830184615fc5565b92915050565b5f60ff82169050919050565b61600281615fed565b811461600c575f80fd5b50565b5f8135905061601d81615ff9565b92915050565b5f6020828403121561603857616037615b4e565b5b5f6160458482850161600f565b91505092915050565b61605781615b9f565b82525050565b5f6020820190506160705f83018461604e565b92915050565b5f806040838503121561608c5761608b615b4e565b5b5f61609985828601615b6c565b92505060206160aa85828601615b6c565b9150509250929050565b5f602082840312156160c9576160c8615b4e565b5b5f6160d684828501615b6c565b91505092915050565b6160e881615d78565b82525050565b5f6020820190506161015f8301846160df565b92915050565b5f80fd5b5f80fd5b5f80fd5b5f8083601f84011261612857616127616107565b5b8235905067ffffffffffffffff8111156161455761614461610b565b5b6020830191508360018202830111156161615761616061610f565b5b9250929050565b5f8083601f84011261617d5761617c616107565b5b8235905067ffffffffffffffff81111561619a5761619961610b565b5b6020830191508360208202830111156161b6576161b561610f565b5b9250929050565b5f805f805f606086880312156161d6576161d5615b4e565b5b5f6161e388828901615b6c565b955050602086013567ffffffffffffffff81111561620457616203615b52565b5b61621088828901616113565b9450945050604086013567ffffffffffffffff81111561623357616232615b52565b5b61623f88828901616168565b92509250509295509295909350565b5f6bffffffffffffffffffffffff82169050919050565b61626e8161624e565b82525050565b5f6fffffffffffffffffffffffffffffffff82169050919050565b61629881616274565b82525050565b5f64ffffffffff82169050919050565b6162b78161629e565b82525050565b5f6162c782615b80565b9050919050565b6162d7816162bd565b82525050565b6162e681615bda565b82525050565b60c082015f8201516163005f850182616265565b506020820151616313602085018261628f565b50604082015161632660408501826162ae565b50606082015161633960608501826162ae565b50608082015161634c60808501826162ce565b5060a082015161635f60a08501826162dd565b50505050565b5f60c0820190506163785f8301846162ec565b92915050565b61638781615eb9565b82525050565b5f6020820190506163a05f83018461637e565b92915050565b5f81519050919050565b5f82825260208201905092915050565b5f819050602082019050919050565b5f6163da8383615d96565b60208301905092915050565b5f602082019050919050565b5f6163fc826163a6565b61640681856163b0565b9350616411836163c0565b805f5b8381101561644157815161642888826163cf565b9750616433836163e6565b925050600181019050616414565b5085935050505092915050565b5f6020820190508181035f83015261646681846163f2565b905092915050565b6164778161624e565b82525050565b61648681616274565b82525050565b6164958161629e565b82525050565b6164a4816162bd565b82525050565b5f60e0820190506164bd5f83018a61646e565b6164ca60208301896160df565b6164d7604083018861647d565b6164e4606083018761648c565b6164f1608083018661648c565b6164fe60a083018561649b565b61650b60c0830184615f51565b98975050505050505050565b5f6020828403121561652c5761652b615b4e565b5b5f61653984828501615bc6565b91505092915050565b5f806040838503121561655857616557615b4e565b5b5f61656585828601615b6c565b925050602061657685828601615bc6565b9150509250929050565b61658981615f20565b82525050565b61659881615cc6565b82525050565b61012082015f8201516165b35f850182615d96565b5060208201516165c66020850182616580565b5060408201516165d96040850182616580565b5060608201516165ec606085018261658f565b5060808201516165ff6080850182615d96565b5060a082015161661260a0850182615d96565b5060c082015161662560c0850182615d96565b5060e082015161663860e0850182615da5565b5061010082015161664d6101008501826162dd565b50505050565b5f610120820190506166675f83018461659e565b92915050565b5f601f19601f8301169050919050565b7f4e487b71000000000000000000000000000000000000000000000000000000005f52604160045260245ffd5b6166b38261666d565b810181811067ffffffffffffffff821117156166d2576166d161667d565b5b80604052505050565b5f6166e4615b45565b90506166f082826166aa565b919050565b5f67ffffffffffffffff82111561670f5761670e61667d565b5b602082029050602081019050919050565b5f80fd5b61672d81615d78565b8114616737575f80fd5b50565b5f8135905061674881616724565b92915050565b5f6080828403121561676357616762616720565b5b61676d60806166db565b90505f61677c8482850161673a565b5f83015250602061678f84828501615b6c565b60208301525060406167a384828501615bc6565b60408301525060606167b784828501615b6c565b60608301525092915050565b5f6167d56167d0846166f5565b6166db565b905080838252602082019050608084028301858111156167f8576167f761610f565b5b835b81811015616821578061680d888261674e565b8452602084019350506080810190506167fa565b5050509392505050565b5f82601f83011261683f5761683e616107565b5b813561684f8482602086016167c3565b91505092915050565b5f6020828403121561686d5761686c615b4e565b5b5f82013567ffffffffffffffff81111561688a57616889615b52565b5b6168968482850161682b565b91505092915050565b5f80604083850312156168b5576168b4615b4e565b5b5f6168c285828601615b6c565b92505060206168d38582860161673a565b9150509250929050565b5f80604083850312156168f3576168f2615b4e565b5b5f61690085828601615b6c565b925050602061691185828601615bfb565b9150509250929050565b61692481615fed565b82525050565b5f60208201905061693d5f83018461691b565b92915050565b5f61694d82615fa3565b9050919050565b61695d81616943565b82525050565b5f6020820190506169765f830184616954565b92915050565b5f77ffffffffffffffffffffffffffffffffffffffffffffffff82169050919050565b6169a88161697c565b81146169b2575f80fd5b50565b5f813590506169c38161699f565b92915050565b5f6169d382615b9f565b9050919050565b6169e3816169c9565b81146169ed575f80fd5b50565b5f813590506169fe816169da565b92915050565b5f805f8060808587031215616a1c57616a1b615b4e565b5b5f616a29878288016169b5565b9450506020616a3a87828801615ee1565b9350506040616a4b8782880161600f565b9250506060616a5c878288016169f0565b91505092959194509250565b5f60208284031215616a7d57616a7c615b4e565b5b5f616a8a848285016169b5565b91505092915050565b5f616a9d82615fa3565b9050919050565b616aad81616a93565b82525050565b5f602082019050616ac65f830184616aa4565b92915050565b616ad581615f20565b8114616adf575f80fd5b50565b5f81359050616af081616acc565b92915050565b5f60208284031215616b0b57616b0a615b4e565b5b5f616b1884828501616ae2565b91505092915050565b616b2a8161697c565b82525050565b5f602082019050616b435f830184616b21565b92915050565b5f616b5382615fa3565b9050919050565b616b6381616b49565b82525050565b5f602082019050616b7c5f830184616b5a565b92915050565b5f805f60608486031215616b9957616b98615b4e565b5b5f616ba686828701615bc6565b9350506020616bb786828701615bc6565b9250506040616bc886828701616ae2565b9150509250925092565b5f606082019050616be55f830186615b1d565b616bf2602083018561604e565b616bff6040830184615f51565b949350505050565b5f82825260208201905092915050565b7f7374617274496420746f6f206c617267650000000000000000000000000000005f82015250565b5f616c4b601183616c07565b9150616c5682616c17565b602082019050919050565b5f6020820190508181035f830152616c7881616c3f565b9050919050565b7f4e487b71000000000000000000000000000000000000000000000000000000005f52601160045260245ffd5b5f616cb682615b14565b9150616cc183615b14565b9250828203905081811115616cd957616cd8616c7f565b5b92915050565b5f616ce982615b14565b9150616cf483615b14565b9250828201905080821115616d0c57616d0b616c7f565b5b92915050565b7f4e487b71000000000000000000000000000000000000000000000000000000005f52603260045260245ffd5b5f616d4982615b14565b91507fffffffffffffffffffffffffffffffffffffffffffffffffffffffffffffffff8203616d7b57616d7a616c7f565b5b600182019050919050565b7f4f776e61626c653a2063616c6c6572206973206e6f7420746865206f776e65725f82015250565b5f616dba602083616c07565b9150616dc582616d86565b602082019050919050565b5f6020820190508181035f830152616de781616dae565b9050919050565b7f74696d6542756666657220746f6f206c617267650000000000000000000000005f82015250565b5f616e22601483616c07565b9150616e2d82616dee565b602082019050919050565b5f6020820190508181035f830152616e4f81616e16565b9050919050565b5f616e70616e6b616e6684615eb9565b615f79565b615b14565b9050919050565b616e8081616e56565b82525050565b5f602082019050616e995f830184616e77565b92915050565b5f616eb9616eb4616eaf84615fed565b615f79565b615b14565b9050919050565b616ec981616e9f565b82525050565b5f602082019050616ee25f830184616ec0565b92915050565b7f4e487b71000000000000000000000000000000000000000000000000000000005f52601260045260245ffd5b5f616f1f82615b14565b9150616f2a83615b14565b925082616f3a57616f39616ee8565b5b828206905092915050565b7f5061757361626c653a20706175736564000000000000000000000000000000005f82015250565b5f616f79601083616c07565b9150616f8482616f45565b602082019050919050565b5f6020820190508181035f830152616fa681616f6d565b9050919050565b7f5265656e7472616e637947756172643a207265656e7472616e742063616c6c005f82015250565b5f616fe1601f83616c07565b9150616fec82616fad565b602082019050919050565b5f6020820190508181035f83015261700e81616fd5565b9050919050565b5f6040820190506170285f83018561604e565b6170356020830184615b1d565b9392505050565b5f60408201905061704f5f830185615cd7565b61705c6020830184615cd7565b9392505050565b5f8160601b9050919050565b5f61707982617063565b9050919050565b5f61708a8261706f565b9050919050565b6170a261709d82615b9f565b617080565b82525050565b5f6170b38284617091565b60148201915081905092915050565b5f6170cc82615d78565b91506170d783615d78565b9250828201905063ffffffff8111156170f3576170f2616c7f565b5b92915050565b5f82825260208201905092915050565b828183375f83830152505050565b5f61712283856170f9565b935061712f838584617109565b6171388361666d565b840190509392505050565b5f6040820190506171565f830186615f29565b8181036020830152617169818486617117565b9050949350505050565b5f80fd5b5f67ffffffffffffffff8211156171915761719061667d565b5b61719a8261666d565b9050602081019050919050565b5f5b838110156171c45780820151818401526020810190506171a9565b5f8484015250505050565b5f6171e16171dc84617177565b6166db565b9050828152602081018484840111156171fd576171fc617173565b5b6172088482856171a7565b509392505050565b5f82601f83011261722457617223616107565b5b81516172348482602086016171cf565b91505092915050565b5f6020828403121561725257617251615b4e565b5b5f82015167ffffffffffffffff81111561726f5761726e615b52565b5b61727b84828501617210565b91505092915050565b7f4d697373696e67206461746100000000000000000000000000000000000000005f82015250565b5f6172b8600c83616c07565b91506172c382617284565b602082019050919050565b5f6020820190508181035f8301526172e5816172ac565b9050919050565b5f6172f682615b14565b91505f820361730857617307616c7f565b5b600182039050919050565b7f4e6f7420656e6f75676820686973746f727900000000000000000000000000005f82015250565b5f617347601283616c07565b915061735282617313565b602082019050919050565b5f6020820190508181035f8301526173748161733b565b9050919050565b7f5061757361626c653a206e6f74207061757365640000000000000000000000005f82015250565b5f6173af601483616c07565b91506173ba8261737b565b602082019050919050565b5f6020820190508181035f8301526173dc816173a3565b9050919050565b7f496e697469616c697a61626c653a20636f6e747261637420697320616c7265615f8201527f647920696e697469616c697a6564000000000000000000000000000000000000602082015250565b5f61743d602e83616c07565b9150617448826173e3565b604082019050919050565b5f6020820190508181035f83015261746a81617431565b9050919050565b5f61748b6174866174818461697c565b615f79565b615b14565b9050919050565b61749b81617471565b82525050565b5f6020820190506174b45f830184617492565b92915050565b7f4f776e61626c653a206e6577206f776e657220697320746865207a65726f20615f8201527f6464726573730000000000000000000000000000000000000000000000000000602082015250565b5f617514602683616c07565b915061751f826174ba565b604082019050919050565b5f6020820190508181035f83015261754181617508565b9050919050565b5f61755282615b14565b915061755d83615b14565b925082820261756b81615b14565b9150828204841483151761758257617581616c7f565b5b5092915050565b5f61759382615b14565b915061759e83615b14565b9250826175ae576175ad616ee8565b5b828204905092915050565b5f815190506175c781615b56565b92915050565b5f602082840312156175e2576175e1615b4e565b5b5f6175ef848285016175b9565b91505092915050565b5f8160e01c9050919050565b5f60033d11156176205760045f803e61761d5f516175f8565b90505b90565b5f60443d106176af57617634615b45565b60043d036004823e80513d602482011167ffffffffffffffff8211171561765c5750506176af565b808201805167ffffffffffffffff81111561767a57505050506176af565b80602083010160043d0385018111156176975750505050506176af565b6176a6826020018501866166aa565b82955050505050505b90565b5f6176bc8261629e565b91506176c78361629e565b9250828201905064ffffffffff8111156176e4576176e3616c7f565b5b92915050565b5f6040820190506176fd5f830185615b1d565b61770a6020830184615f29565b9392505050565b5f81519050919050565b5f82825260208201905092915050565b5f61773582617711565b61773f818561771b565b935061774f8185602086016171a7565b6177588161666d565b840191505092915050565b5f604083015f8301516177785f860182615da5565b5060208301518482036020860152617790828261772b565b9150508091505092915050565b5f6020820190508181035f8301526177b58184617763565b905092915050565b5f815190506177cb81616acc565b92915050565b5f602082840312156177e6576177e5615b4e565b5b5f6177f3848285016177bd565b91505092915050565b5f61781661781161780c8461629e565b615f79565b615b14565b9050919050565b617826816177fc565b82525050565b5f60408201905061783f5f83018561781d565b61784c602083018461781d565b9392505050565b5f8151905061786181615be5565b92915050565b5f6020828403121561787c5761787b615b4e565b5b5f61788984828501617853565b91505092915050565b7f53616e6374696f6e6564206269646465720000000000000000000000000000005f82015250565b5f6178c6601183616c07565b91506178d182617892565b602082019050919050565b5f6020820190508181035f8301526178f3816178ba565b9050919050565b7f41756374696f6e206861736e277420626567756e0000000000000000000000005f82015250565b5f61792e601483616c07565b9150617939826178fa565b602082019050919050565b5f6020820190508181035f83015261795b81617922565b9050919050565b5f61797c6179776179728461624e565b615f79565b615b14565b9050919050565b61798c81617962565b82525050565b5f6020820190506179a55f830184617983565b92915050565b5f6179b582615fa3565b9050919050565b6179c5816179ab565b82525050565b5f6060820190506179de5f83018661604e565b6179eb60208301856179bc565b6179f86040830184617983565b949350505050565b5f617a1a617a15617a1084616274565b615f79565b615b14565b9050919050565b617a2a81617a00565b82525050565b5f604082019050617a435f8301856179bc565b617a506020830184617a21565b9392505050565b5f819050919050565b617a71617a6c82615f20565b617a57565b82525050565b5f617a828285617a60565b602082019150617a928284617a60565b602082019150819050939250505056fea2646970667358221220cce7b2b4cfc77a8d8ea65fe451d5a4d7ca88ddc981257ec3f0dcc1f654d6389b64736f6c63430008170033","linkReferences":{}},"methodIdentifiers":{"MAX_PRICE()":"01c11d96","MAX_TIME_BUFFER()":"85317a29","MIN_PRICE()":"ad9f20a6","PRICE_LADDER_BUCKETS()":"f859884b","auction()":"7d9f6db5","auctionStorage()":"945c37cb","bidderMerkleRoot()":"1d2a5c6e","biddingClient(uint256)":"6dd83b5d","createBid(uint256)":"659dd2b4","createBid(uint256,uint32)":"abbfb786","currentPhase()":"055ad42e","duration()":"0fb5a6b4","e3ToAuction(bytes32)":"d8642e1e","enclave()":"dbb06c93","getPrices(uint256)":"91492956","getSettlements(uint256,bool)":"af64dd30","getSettlements(uint256,uint256,bool)":"b1296a94","getSettlementsFromIdtoTimestamp(uint256,uint256,bool)":"09b85709","getVickreyAuction(uint256)":"a90dca17","hasSubmittedSealedBid(uint256,address)":"9f47c36f","initialize(uint192,uint56,uint8,address)":"bc88b003","initializeV4(address,address,bytes32)":"e42aee0c","minBidIncrementPercentage()":"b296024d","nouns()":"2de45f18","onAuctionResultDecoded(uint256,uint256,address,bool)":"040f739b","owner()":"8da5cb5b","pause()":"8456cb59","paused()":"5c975abb","program()":"c860ebc6","renounceOwnership()":"715018a6","reservePrice()":"db2e1eed","sanctionsOracle()":"b3df4df9","setMinBidIncrementPercentage(uint8)":"36ebdb38","setPrices((uint32,uint256,address,uint256)[])":"a94dd8a0","setReservePrice(uint192)":"c0555d98","setSanctionsOracle(address)":"9ddd8982","setTimeBuffer(uint56)":"0ba4e9ea","settleAuction()":"a4d0a17e","settleCurrentAndCreateNewAuction()":"f25efffc","submitSealedBid(uint256,bytes,bytes32[])":"76b16c03","timeBuffer()":"ec91f2a4","transferOwnership(address)":"f2fde38b","unpause()":"3f4ba83a","v4Initialized()":"1ef2fc7e","warmUpSettlementState(uint256,uint256)":"5112fabf","weth()":"3fc8cef3"},"id":5}